:03000000020C1ED1
:0C0C1E00787FE4F6D8FD75811C020C659F
:030D7B000118015B
:0A0D7100120D38120D56D2AF80FEAD
:100D3800C29FD29EC29DD29CC29BC29AC299C2989F
:0E0D480075CAB775CBFF75C834C298D2AC22FD
:03002300020CAA22
:100CAA00C0E0C0F0C083C082C0D075D000C000C010
:0D0CBA0001C002C003C004C005C006C00791
:100CC700309820C298AF99EFC394304016EFD39471
:100CD700395010EF24D0F518F4F580AF18120B6BCC
:080CE70075A000309902C299CA
:100CEF00D007D006D005D004D003D002D001D00059
:0B0CFF00D0D0D082D083D0F0D0E03203
:100D5600D2A95389F0438901AF18120B6BC296AF23
:0A0D66001CAE1B8F8AEEF58CD28CB8
:010D70002260
:03000B00020D0AD9
:0B0D0A00C0E0C0D075D000C006C007DC
:100D1500C28C309608C296AE1BAF1C8006D296AE2A
:0A0D250019AF1A8F8AEEF58CD28CFC
:090D2F00D007D006D0D0D0E0328C
:100B6B00AC07E4120AA8E4FBFA797A78441208F885
:100B7B00A804A905AA06AB07E4FFFE7D807C3F1203
:100B8B000A018F138E128D118C107F387EBF7D283A
:100B9B007C4BAB13AA12A911A8101208F8E4FBFAAC
:100BAB0079407841120A01E4FBFA797078C2120895
:100BBB00078F178E168D158C14E4FBFA794078404D
:100BCB00120A01A804A905AA06AB077F007EFF7DC8
:100BDB007F7C47120803120ADC8E198F1AE4FFFE82
:100BEB00FD7C40AB17AA16A915A8141208F8E4FB54
:100BFB00FA79407840120A01A804A905AA06AB07A6
:100C0B007F007EFF7D7F7C47120803120ADC8E1B60
:020C1B008F1C2C
:010C1D0022B4
:10080000020B48E86480F8E933E83360110460F0D3
:10081000ED33EC337009E8FCE9FDEAFEEBFF22045E
:1008200060DED3EB9FEA9EE99DE8C2E78CF0C2F759
:1008300095F0400CE8CCF8E9CDF9EACEFAEBCFFB25
:10084000120B1385D0F05804700320D5B3E8047060
:10085000075002B2D5020B5292D5EC0460F7E4CCFB
:10086000C0E0C398F8603B94186008400DD0E0FBEE
:10087000020B2AE4FBFAC9FC8028E830E406E4C94C
:10088000FBE4CAFCE830E305E4C9CACBFCE8540742
:100890006010F8C3E913F9EA13FAEB13FBEC13FC4D
:1008A000D8F130F52FC3E49CFCEF9BFFEE9AFEEDF0
:1008B00099FDD0E0FBEF4E4D4C701222DB03020B92
:1008C0004FEC2CFCEF33FFEE33FEED33FDED30E764
:1008D000EB020B2AEF2BFFEE3AFEED39FDD0E0FBE9
:1008E00050130BBB0003020B52ED13FDEE13FEEF92
:0808F00013FFEC13FC020B2ABC
:1008F800EC4D6011E8497017ED33EC3304600DE4FA
:10090800FCFFFEFD22E933E8330470F8020B4812BD
:100918000B1358046009E4CC2481500628500902BE
:100928000B52284003020B4FC0E0EB4A7044B980D9
:1009380006D0E0FB020B3EEF4E701CBD8008EBFFBB
:10094800EAFEE9FD80EBE98DF0A4FEE5F00209E19D
:10095800E9CDF9EAFEEBFFEF89F0A4FCE5F0CE89DA
:10096800F0A42EFFE435F0CD89F0A42DFEE435F097
:100978008067EF4E7005BD80D780C3EF8BF0A4ACC5
:10098800F0EE8BF0A42CFCE435F0F8EF8AF0A42C00
:10099800E5F038FCE433CB8DF0A42CFCE5F03BF813
:1009A800EE8AF0A42CFCE5F038F8E433CF89F0A403
:1009B8002CFCE5F038CF3400CE89F0A42FFFE5F009
:1009C8003EFEE433C98DF0A42EFEE5F039CD8AF061
:1009D800A42FFFE5F03EFEE43DFD33D0E0FB5007D9
:1009E8000BBB000F020B52EC2CFCEF33FFEE33FE77
:0609F800ED33FD020B2AA5
:1009FE00020B52EC5D046005E859047003020B48CB
:100A0E00120B13580460F6EC4860F2EC7004FDFE15
:100A1E00FF22C860DB2481C85009C39860025006CB
:100A2E00020B4F9850CAF582E9294B4A7005AB82EA
:100A3E00020B3E75F0007C1A7880C3EF9BEE9AEDA8
:100A4E0099400DC3EF9BFFEE9AFEED99FDE842F043
:100A5E00DC23ACF0D0E0FFD0E0FED0E0FDAB822096
:100A6E00E7101BEB60BAEC2CFCEF33FFEE33FEED20
:100A7E0033FD020B2AE803F830E705C0F075F000ED
:100A8E00EF2FFFEE33FEED33FD40B830E7C280AA04
:100A9E0075F020800E75F010800575F0087D007ED3
:100AAE00007F003392D530D503120B5DEC3340102E
:100ABE00EF33FFEE33FEED33FDEC33FCD5F0ED22DC
:0E0ACE00E5F0247EA2D513CC92E7CDCEFF2218
:100ADC00EDD2E7CD33EC3392D524814006E4FFFE12
:100AEC00FDFC22FCE4CFCECDCC24E0501174FF8071
:100AFC00EDC3CC13CCCD13CDCE13CECF13CF04700E
:070B0C00F030D5DE020B5DA5
:100B1300E9D2E7C933E833F892D5EDD2E7CD33EC28
:070B230033FC5002B2D522A1
:100B2A00EC30E7100FBF000C0EBE00080DBD00042C
:100B3A000BEB6014A2D5EB13FCED92E7FD2274FFD8
:100B4A00FCFDFEFF22E480F8A2D574FF13FC7D8031
:030B5A00E480EF45
:100C2A00020D71E493A3F8E493A34003F68001F262
:100C3A0008DFF48029E493A3F85407240CC8C333CB
:100C4A00C4540F4420C8834004F456800146F6DF9A
:100C5A00E4800B0102040810204080900D7BE47EA2
:100C6A00019360BCA3FF543F30E509541FFEE4938F
:100C7A00A360010ECF54C025E060A840B8E493A356
:100C8A00FAE493A3F8E493A3C8C582C8CAC583CA81
:100C9A00F0A3C8C582C8CAC583CADFE9DEE780BE39
:010D7E000074
:0E0B5D00C3E49FFFE49EFEE49DFDE49CFC22A9
:00000001FF
