:0300000002096B87
:0C096B00787FE4F6D8FD75810802094D84
:10094D0012095D12092FD2AFE4F5907808F680FEFA
:0E095D00D2A95389F0438902E4F58CD28C2292
:03000B00020800E8
:10080000C0E0C0D075D000C000C004C005C006C0A4
:0108100007E0
:100811007FFFC28CD2B4D2B5D2B6D2B7780806E681
:1008210064047001F67808E6FD7C007002C2B4ED44
:1008310064014C7002C2B5ED64024C7002C2B6EDA7
:1008410064034C7002C2B70000000020800520B490
:10085100027F0020800520B5027F0120800520B69F
:10086100027F0220800520B7027F0320810520B48A
:10087100027F0420810520B5027F0520810520B675
:10088100027F0620810520B7027F0720820520B460
:10089100027F0820820520B5027F0920820520B64B
:1008A100027F0A20820520B7027F0B20830520B436
:1008B100027F0C20830520B5027F0D20830520B621
:1008C100027F0E20830520B7027F0F20840520B40C
:1008D100027F1020840520B5027F1120840520B6F7
:1008E100027F1220840520B7027F13EFFDC394FF1E
:1008F100748094805027EFF4F590C3ED940A7480CE
:100901009480EF50062430F59980042437F599E45A
:0F091100FFFE0FBF00010EBEFFF8BFFFF5D28C37
:0F092000D007D006D005D004D000D0D0D0E03220
:10092F00C29FD29EC29DD29CC29BC29AC299C298AC
:0E093F0075CAB775CBFF75C834C298D2AC220A
:0300230002097758
:0B097700309802C298309902C29932F9
:00000001FF
