:030000000208FEF5
:0C08FE00787FE4F6D8FD75810D0208B18A
:0A090A00FC0CB69E4EDAFA8CFEDEFD
:1008B1001208D21208F0E47808F6087601087602E8
:1008C100087603087604D2AF7FC87E0012088F80B5
:0108D100F72F
:10088F00E4FDFCC3ED9FEC9E5017E4FBFA0BBB009D
:10089F00010AE4B503F7EAB402F30DBD00010C80C1
:0108AF00E266
:0108B0002225
:1008D200C29FD29EC29DD29CC29BC29AC299C2980A
:0E08E20075CAB775CBFF75C834C298D2AC2268
:0300230002084A86
:0B084A00C0E0C0D075D000C000C007A7
:10085500309829E59924D0FFD39409748094804079
:10086500027F09C2987809E618F6780AE618F6783C
:100875000BE618F6780CE618F608A607309902C2BA
:0108850099D9
:09088600D007D000D0D0D0E03240
:0E08F0005389F0438901E4F58CD2A9D28C2201
:03000B00020800E8
:10080000C0E0C083C082C0D075D000C000C00775F2
:100810008CFC758A00759000780DE6FF2408F8E6D8
:1008200090090A93F4F580A8077401088002C33385
:10083000D8FCF590780D06E664057001F6D007D077
:0A08400000D0D0D082D083D0E03287
:00000001FF
